{
  "_format": "hh-sol-artifact-1",
  "contractName": "EventVoting",
  "sourceName": "contracts/EventVoting.sol",
  "abi": [
    {
      "inputs": [],
      "stateMutability": "nonpayable",
      "type": "constructor"
    },
    {
      "inputs": [],
      "name": "currentEventId",
      "outputs": [
        {
          "internalType": "uint256",
          "name": "",
          "type": "uint256"
        }
      ],
      "stateMutability": "view",
      "type": "function"
    },
    {
      "inputs": [],
      "name": "endVoting",
      "outputs": [],
      "stateMutability": "nonpayable",
      "type": "function"
    },
    {
      "inputs": [
        {
          "internalType": "uint256",
          "name": "_eventId",
          "type": "uint256"
        }
      ],
      "name": "getCandidates",
      "outputs": [
        {
          "components": [
            {
              "internalType": "string",
              "name": "name",
              "type": "string"
            },
            {
              "internalType": "uint256",
              "name": "voteCount",
              "type": "uint256"
            }
          ],
          "internalType": "struct EventVoting.Candidate[]",
          "name": "",
          "type": "tuple[]"
        }
      ],
      "stateMutability": "view",
      "type": "function"
    },
    {
      "inputs": [],
      "name": "getCurrentEventId",
      "outputs": [
        {
          "internalType": "uint256",
          "name": "",
          "type": "uint256"
        }
      ],
      "stateMutability": "view",
      "type": "function"
    },
    {
      "inputs": [],
      "name": "getCurrentEventName",
      "outputs": [
        {
          "internalType": "string",
          "name": "",
          "type": "string"
        }
      ],
      "stateMutability": "view",
      "type": "function"
    },
    {
      "inputs": [
        {
          "internalType": "uint256",
          "name": "_eventId",
          "type": "uint256"
        }
      ],
      "name": "getEventInfo",
      "outputs": [
        {
          "internalType": "string",
          "name": "name",
          "type": "string"
        },
        {
          "internalType": "bool",
          "name": "started",
          "type": "bool"
        },
        {
          "internalType": "bool",
          "name": "ended",
          "type": "bool"
        },
        {
          "internalType": "uint256",
          "name": "startTime",
          "type": "uint256"
        },
        {
          "internalType": "uint256",
          "name": "endTime",
          "type": "uint256"
        }
      ],
      "stateMutability": "view",
      "type": "function"
    },
    {
      "inputs": [
        {
          "internalType": "uint256",
          "name": "",
          "type": "uint256"
        },
        {
          "internalType": "address",
          "name": "",
          "type": "address"
        }
      ],
      "name": "hasVoted",
      "outputs": [
        {
          "internalType": "bool",
          "name": "",
          "type": "bool"
        }
      ],
      "stateMutability": "view",
      "type": "function"
    },
    {
      "inputs": [],
      "name": "owner",
      "outputs": [
        {
          "internalType": "address",
          "name": "",
          "type": "address"
        }
      ],
      "stateMutability": "view",
      "type": "function"
    },
    {
      "inputs": [
        {
          "internalType": "string",
          "name": "_eventName",
          "type": "string"
        },
        {
          "internalType": "string[]",
          "name": "_candidateNames",
          "type": "string[]"
        }
      ],
      "name": "setupEvent",
      "outputs": [],
      "stateMutability": "nonpayable",
      "type": "function"
    },
    {
      "inputs": [
        {
          "internalType": "uint256",
          "name": "_durationInSeconds",
          "type": "uint256"
        }
      ],
      "name": "startVoting",
      "outputs": [],
      "stateMutability": "nonpayable",
      "type": "function"
    },
    {
      "inputs": [
        {
          "internalType": "uint256",
          "name": "_candidateIndex",
          "type": "uint256"
        }
      ],
      "name": "vote",
      "outputs": [],
      "stateMutability": "nonpayable",
      "type": "function"
    }
  ],
  "bytecode": "0x6080604052348015600f57600080fd5b50336000806101000a81548173ffffffffffffffffffffffffffffffffffffffff021916908373ffffffffffffffffffffffffffffffffffffffff1602179055506000600181905550611d3d806100676000396000f3fe608060405234801561001057600080fd5b50600436106100a95760003560e01c80634385963211610071578063438596321461016857806348e2ef90146101985780637084698c146101b65780638da5cb5b146101d4578063c3403ddf146101f2578063d75d0523146101fc576100a9565b80630121b93f146100ae578063091dbbd7146100ca5780631d645b12146100e85780633d2f5bda1461011c5780633e39a7a514610138575b600080fd5b6100c860048036038101906100c39190610e3d565b610218565b005b6100d26104af565b6040516100df9190610e79565b60405180910390f35b61010260048036038101906100fd9190610e3d565b6104b5565b604051610113959493929190610f3f565b60405180910390f35b61013660048036038101906101319190610e3d565b6105a3565b005b610152600480360381019061014d9190610e3d565b610784565b60405161015f91906110f1565b60405180910390f35b610182600480360381019061017d9190611171565b610895565b60405161018f91906111b1565b60405180910390f35b6101a06108c4565b6040516101ad91906111cc565b60405180910390f35b6101be61096c565b6040516101cb9190610e79565b60405180910390f35b6101dc610976565b6040516101e991906111fd565b60405180910390f35b6101fa61099a565b005b61021660048036038101906102119190611433565b610b04565b005b600060026000600154815260200190815260200160002090508060020160009054906101000a900460ff16610282576040517f08c379a0000000000000000000000000000000000000000000000000000000008152600401610279906114f7565b60405180910390fd5b8060020160019054906101000a900460ff16156102d4576040517f08c379a00000000000000000000000000000000000000000000000000000000081526004016102cb90611563565b60405180910390fd5b8060040154421061031a576040517f08c379a0000000000000000000000000000000000000000000000000000000008152600401610311906115cf565b60405180910390fd5b60036000600154815260200190815260200160002060003373ffffffffffffffffffffffffffffffffffffffff1673ffffffffffffffffffffffffffffffffffffffff16815260200190815260200160002060009054906101000a900460ff16156103ba576040517f08c379a00000000000000000000000000000000000000000000000000000000081526004016103b19061163b565b60405180910390fd5b80600101805490508210610403576040517f08c379a00000000000000000000000000000000000000000000000000000000081526004016103fa906116a7565b60405180910390fd5b600160036000600154815260200190815260200160002060003373ffffffffffffffffffffffffffffffffffffffff1673ffffffffffffffffffffffffffffffffffffffff16815260200190815260200160002060006101000a81548160ff021916908315150217905550806001018281548110610484576104836116c7565b5b906000526020600020906002020160010160008154809291906104a690611725565b91905055505050565b60015481565b606060008060008060006002600088815260200190815260200160002090508060000180546104e39061179c565b80601f016020809104026020016040519081016040528092919081815260200182805461050f9061179c565b801561055c5780601f106105315761010080835404028352916020019161055c565b820191906000526020600020905b81548152906001019060200180831161053f57829003601f168201915b505050505095508060020160009054906101000a900460ff1694508060020160019054906101000a900460ff16935080600301549250806004015491505091939590929450565b60008054906101000a900473ffffffffffffffffffffffffffffffffffffffff1673ffffffffffffffffffffffffffffffffffffffff163373ffffffffffffffffffffffffffffffffffffffff1614610631576040517f08c379a000000000000000000000000000000000000000000000000000000000815260040161062890611819565b60405180910390fd5b600060026000600154815260200190815260200160002090508060020160009054906101000a900460ff161561069c576040517f08c379a000000000000000000000000000000000000000000000000000000000815260040161069390611885565b60405180910390fd5b60008160010180549050116106e6576040517f08c379a00000000000000000000000000000000000000000000000000000000081526004016106dd906118f1565b60405180910390fd5b60008211610729576040517f08c379a00000000000000000000000000000000000000000000000000000000081526004016107209061195d565b60405180910390fd5b60018160020160006101000a81548160ff02191690831515021790555060008160020160016101000a81548160ff0219169083151502179055504281600301819055508142610778919061197d565b81600401819055505050565b606060026000838152602001908152602001600020600101805480602002602001604051908101604052809291908181526020016000905b8282101561088a57838290600052602060002090600202016040518060400160405290816000820180546107ef9061179c565b80601f016020809104026020016040519081016040528092919081815260200182805461081b9061179c565b80156108685780601f1061083d57610100808354040283529160200191610868565b820191906000526020600020905b81548152906001019060200180831161084b57829003601f168201915b50505050508152602001600182015481525050815260200190600101906107bc565b505050509050919050565b60036020528160005260406000206020528060005260406000206000915091509054906101000a900460ff1681565b606060026000600154815260200190815260200160002060000180546108e99061179c565b80601f01602080910402602001604051908101604052809291908181526020018280546109159061179c565b80156109625780601f1061093757610100808354040283529160200191610962565b820191906000526020600020905b81548152906001019060200180831161094557829003601f168201915b5050505050905090565b6000600154905090565b60008054906101000a900473ffffffffffffffffffffffffffffffffffffffff1681565b60008054906101000a900473ffffffffffffffffffffffffffffffffffffffff1673ffffffffffffffffffffffffffffffffffffffff163373ffffffffffffffffffffffffffffffffffffffff1614610a28576040517f08c379a0000000000000000000000000000000000000000000000000000000008152600401610a1f90611819565b60405180910390fd5b600060026000600154815260200190815260200160002090508060020160009054906101000a900460ff16610a92576040517f08c379a0000000000000000000000000000000000000000000000000000000008152600401610a89906119fd565b60405180910390fd5b8060020160019054906101000a900460ff1615610ae4576040517f08c379a0000000000000000000000000000000000000000000000000000000008152600401610adb90611a69565b60405180910390fd5b60018160020160016101000a81548160ff02191690831515021790555050565b60008054906101000a900473ffffffffffffffffffffffffffffffffffffffff1673ffffffffffffffffffffffffffffffffffffffff163373ffffffffffffffffffffffffffffffffffffffff1614610b92576040517f08c379a0000000000000000000000000000000000000000000000000000000008152600401610b8990611819565b60405180910390fd5b60016000815480929190610ba590611725565b9190505550816002600060015481526020019081526020016000206000019081610bcf9190611c35565b50600060026000600154815260200190815260200160002060020160006101000a81548160ff021916908315150217905550600060026000600154815260200190815260200160002060020160016101000a81548160ff0219169083151502179055506000600260006001548152602001908152602001600020600301819055506000600260006001548152602001908152602001600020600401819055506002600060015481526020019081526020016000206001016000610c929190610d43565b60005b8151811015610d3e576002600060015481526020019081526020016000206001016040518060400160405280848481518110610cd457610cd36116c7565b5b60200260200101518152602001600081525090806001815401808255809150506001900390600052602060002090600202016000909190919091506000820151816000019081610d249190611c35565b506020820151816001015550508080600101915050610c95565b505050565b5080546000825560020290600052602060002090810190610d649190610d67565b50565b5b80821115610d925760008082016000610d819190610d96565b600182016000905550600201610d68565b5090565b508054610da29061179c565b6000825580601f10610db45750610dd3565b601f016020900490600052602060002090810190610dd29190610dd6565b5b50565b5b80821115610def576000816000905550600101610dd7565b5090565b6000604051905090565b600080fd5b600080fd5b6000819050919050565b610e1a81610e07565b8114610e2557600080fd5b50565b600081359050610e3781610e11565b92915050565b600060208284031215610e5357610e52610dfd565b5b6000610e6184828501610e28565b91505092915050565b610e7381610e07565b82525050565b6000602082019050610e8e6000830184610e6a565b92915050565b600081519050919050565b600082825260208201905092915050565b60005b83811015610ece578082015181840152602081019050610eb3565b60008484015250505050565b6000601f19601f8301169050919050565b6000610ef682610e94565b610f008185610e9f565b9350610f10818560208601610eb0565b610f1981610eda565b840191505092915050565b60008115159050919050565b610f3981610f24565b82525050565b600060a0820190508181036000830152610f598188610eeb565b9050610f686020830187610f30565b610f756040830186610f30565b610f826060830185610e6a565b610f8f6080830184610e6a565b9695505050505050565b600081519050919050565b600082825260208201905092915050565b6000819050602082019050919050565b600082825260208201905092915050565b6000610fe182610e94565b610feb8185610fc5565b9350610ffb818560208601610eb0565b61100481610eda565b840191505092915050565b61101881610e07565b82525050565b6000604083016000830151848203600086015261103b8282610fd6565b9150506020830151611050602086018261100f565b508091505092915050565b6000611067838361101e565b905092915050565b6000602082019050919050565b600061108782610f99565b6110918185610fa4565b9350836020820285016110a385610fb5565b8060005b858110156110df57848403895281516110c0858261105b565b94506110cb8361106f565b925060208a019950506001810190506110a7565b50829750879550505050505092915050565b6000602082019050818103600083015261110b818461107c565b905092915050565b600073ffffffffffffffffffffffffffffffffffffffff82169050919050565b600061113e82611113565b9050919050565b61114e81611133565b811461115957600080fd5b50565b60008135905061116b81611145565b92915050565b6000806040838503121561118857611187610dfd565b5b600061119685828601610e28565b92505060206111a78582860161115c565b9150509250929050565b60006020820190506111c66000830184610f30565b92915050565b600060208201905081810360008301526111e68184610eeb565b905092915050565b6111f781611133565b82525050565b600060208201905061121260008301846111ee565b92915050565b600080fd5b600080fd5b7f4e487b7100000000000000000000000000000000000000000000000000000000600052604160045260246000fd5b61125a82610eda565b810181811067ffffffffffffffff8211171561127957611278611222565b5b80604052505050565b600061128c610df3565b90506112988282611251565b919050565b600067ffffffffffffffff8211156112b8576112b7611222565b5b6112c182610eda565b9050602081019050919050565b82818337600083830152505050565b60006112f06112eb8461129d565b611282565b90508281526020810184848401111561130c5761130b61121d565b5b6113178482856112ce565b509392505050565b600082601f83011261133457611333611218565b5b81356113448482602086016112dd565b91505092915050565b600067ffffffffffffffff82111561136857611367611222565b5b602082029050602081019050919050565b600080fd5b600061139161138c8461134d565b611282565b905080838252602082019050602084028301858111156113b4576113b3611379565b5b835b818110156113fb57803567ffffffffffffffff8111156113d9576113d8611218565b5b8086016113e6898261131f565b855260208501945050506020810190506113b6565b5050509392505050565b600082601f83011261141a57611419611218565b5b813561142a84826020860161137e565b91505092915050565b6000806040838503121561144a57611449610dfd565b5b600083013567ffffffffffffffff81111561146857611467610e02565b5b6114748582860161131f565b925050602083013567ffffffffffffffff81111561149557611494610e02565b5b6114a185828601611405565b9150509250929050565b7f566f74696e6720686173206e6f7420737461727465642e000000000000000000600082015250565b60006114e1601783610e9f565b91506114ec826114ab565b602082019050919050565b60006020820190508181036000830152611510816114d4565b9050919050565b7f566f74696e6720656e6465642e00000000000000000000000000000000000000600082015250565b600061154d600d83610e9f565b915061155882611517565b602082019050919050565b6000602082019050818103600083015261157c81611540565b9050919050565b7f566f74696e672074696d65206973206f7665722e000000000000000000000000600082015250565b60006115b9601483610e9f565b91506115c482611583565b602082019050919050565b600060208201905081810360008301526115e8816115ac565b9050919050565b7f416c726561647920766f7465642e000000000000000000000000000000000000600082015250565b6000611625600e83610e9f565b9150611630826115ef565b602082019050919050565b6000602082019050818103600083015261165481611618565b9050919050565b7f496e76616c69642063616e64696461746520696e6465782e0000000000000000600082015250565b6000611691601883610e9f565b915061169c8261165b565b602082019050919050565b600060208201905081810360008301526116c081611684565b9050919050565b7f4e487b7100000000000000000000000000000000000000000000000000000000600052603260045260246000fd5b7f4e487b7100000000000000000000000000000000000000000000000000000000600052601160045260246000fd5b600061173082610e07565b91507fffffffffffffffffffffffffffffffffffffffffffffffffffffffffffffffff8203611762576117616116f6565b5b600182019050919050565b7f4e487b7100000000000000000000000000000000000000000000000000000000600052602260045260246000fd5b600060028204905060018216806117b457607f821691505b6020821081036117c7576117c661176d565b5b50919050565b7f4e6f742074686520636f6e7472616374206f776e657221000000000000000000600082015250565b6000611803601783610e9f565b915061180e826117cd565b602082019050919050565b60006020820190508181036000830152611832816117f6565b9050919050565b7f566f74696e6720616c726561647920737461727465642e000000000000000000600082015250565b600061186f601783610e9f565b915061187a82611839565b602082019050919050565b6000602082019050818103600083015261189e81611862565b9050919050565b7f4e6f2063616e64696461746573207365742e0000000000000000000000000000600082015250565b60006118db601283610e9f565b91506118e6826118a5565b602082019050919050565b6000602082019050818103600083015261190a816118ce565b9050919050565b7f496e76616c6964206475726174696f6e2e000000000000000000000000000000600082015250565b6000611947601183610e9f565b915061195282611911565b602082019050919050565b600060208201905081810360008301526119768161193a565b9050919050565b600061198882610e07565b915061199383610e07565b92508282019050808211156119ab576119aa6116f6565b5b92915050565b7f566f74696e67206e6f742073746172746564207965742e000000000000000000600082015250565b60006119e7601783610e9f565b91506119f2826119b1565b602082019050919050565b60006020820190508181036000830152611a16816119da565b9050919050565b7f566f74696e6720616c726561647920656e6465642e0000000000000000000000600082015250565b6000611a53601583610e9f565b9150611a5e82611a1d565b602082019050919050565b60006020820190508181036000830152611a8281611a46565b9050919050565b60008190508160005260206000209050919050565b60006020601f8301049050919050565b600082821b905092915050565b600060088302611aeb7fffffffffffffffffffffffffffffffffffffffffffffffffffffffffffffffff82611aae565b611af58683611aae565b95508019841693508086168417925050509392505050565b6000819050919050565b6000611b32611b2d611b2884610e07565b611b0d565b610e07565b9050919050565b6000819050919050565b611b4c83611b17565b611b60611b5882611b39565b848454611abb565b825550505050565b600090565b611b75611b68565b611b80818484611b43565b505050565b5b81811015611ba457611b99600082611b6d565b600181019050611b86565b5050565b601f821115611be957611bba81611a89565b611bc384611a9e565b81016020851015611bd2578190505b611be6611bde85611a9e565b830182611b85565b50505b505050565b600082821c905092915050565b6000611c0c60001984600802611bee565b1980831691505092915050565b6000611c258383611bfb565b9150826002028217905092915050565b611c3e82610e94565b67ffffffffffffffff811115611c5757611c56611222565b5b611c61825461179c565b611c6c828285611ba8565b600060209050601f831160018114611c9f5760008415611c8d578287015190505b611c978582611c19565b865550611cff565b601f198416611cad86611a89565b60005b82811015611cd557848901518255600182019150602085019450602081019050611cb0565b86831015611cf25784890151611cee601f891682611bfb565b8355505b6001600288020188555050505b50505050505056fea2646970667358221220f4ee7a3939088d33b407166d52a14fef348c2b155ac41dc96fa1b75fe009c6ae64736f6c634300081c0033",
  "linkReferences": {},
  "deployedLinkReferences": {}
}